{
  "_format": "hh-sol-artifact-1",
  "contractName": "NFTMarketplace",
  "sourceName": "contracts/NFTMarketplace.sol",
  "abi": [
    {
      "inputs": [
        {
          "internalType": "uint256",
          "name": "_platformFeeBasisPoints",
          "type": "uint256"
        },
        {
          "internalType": "address",
          "name": "_feeRecipient",
          "type": "address"
        }
      ],
      "stateMutability": "nonpayable",
      "type": "constructor"
    },
    {
      "inputs": [],
      "name": "CannotBuyOwnListing",
      "type": "error"
    },
    {
      "inputs": [
        {
          "internalType": "uint256",
          "name": "required",
          "type": "uint256"
        },
        {
          "internalType": "uint256",
          "name": "provided",
          "type": "uint256"
        }
      ],
      "name": "InsufficientPayment",
      "type": "error"
    },
    {
      "inputs": [],
      "name": "ListingNotActive",
      "type": "error"
    },
    {
      "inputs": [],
      "name": "MarketplaceNotApproved",
      "type": "error"
    },
    {
      "inputs": [],
      "name": "NotSeller",
      "type": "error"
    },
    {
      "inputs": [],
      "name": "NotTokenOwner",
      "type": "error"
    },
    {
      "inputs": [
        {
          "internalType": "address",
          "name": "owner",
          "type": "address"
        }
      ],
      "name": "OwnableInvalidOwner",
      "type": "error"
    },
    {
      "inputs": [
        {
          "internalType": "address",
          "name": "account",
          "type": "address"
        }
      ],
      "name": "OwnableUnauthorizedAccount",
      "type": "error"
    },
    {
      "inputs": [],
      "name": "PriceMustBeAboveZero",
      "type": "error"
    },
    {
      "inputs": [],
      "name": "ReentrancyGuardReentrantCall",
      "type": "error"
    },
    {
      "inputs": [],
      "name": "TransferFailed",
      "type": "error"
    },
    {
      "inputs": [],
      "name": "ZeroAddress",
      "type": "error"
    },
    {
      "anonymous": false,
      "inputs": [
        {
          "indexed": true,
          "internalType": "uint256",
          "name": "listingId",
          "type": "uint256"
        },
        {
          "indexed": true,
          "internalType": "address",
          "name": "seller",
          "type": "address"
        },
        {
          "indexed": true,
          "internalType": "address",
          "name": "nftContract",
          "type": "address"
        },
        {
          "indexed": false,
          "internalType": "uint256",
          "name": "tokenId",
          "type": "uint256"
        },
        {
          "indexed": false,
          "internalType": "uint256",
          "name": "price",
          "type": "uint256"
        }
      ],
      "name": "Listed",
      "type": "event"
    },
    {
      "anonymous": false,
      "inputs": [
        {
          "indexed": true,
          "internalType": "uint256",
          "name": "listingId",
          "type": "uint256"
        },
        {
          "indexed": true,
          "internalType": "address",
          "name": "seller",
          "type": "address"
        }
      ],
      "name": "ListingCancelled",
      "type": "event"
    },
    {
      "anonymous": false,
      "inputs": [
        {
          "indexed": true,
          "internalType": "address",
          "name": "previousOwner",
          "type": "address"
        },
        {
          "indexed": true,
          "internalType": "address",
          "name": "newOwner",
          "type": "address"
        }
      ],
      "name": "OwnershipTransferred",
      "type": "event"
    },
    {
      "anonymous": false,
      "inputs": [
        {
          "indexed": true,
          "internalType": "uint256",
          "name": "listingId",
          "type": "uint256"
        },
        {
          "indexed": false,
          "internalType": "uint256",
          "name": "oldPrice",
          "type": "uint256"
        },
        {
          "indexed": false,
          "internalType": "uint256",
          "name": "newPrice",
          "type": "uint256"
        }
      ],
      "name": "PriceUpdated",
      "type": "event"
    },
    {
      "anonymous": false,
      "inputs": [
        {
          "indexed": true,
          "internalType": "uint256",
          "name": "listingId",
          "type": "uint256"
        },
        {
          "indexed": true,
          "internalType": "address",
          "name": "buyer",
          "type": "address"
        },
        {
          "indexed": true,
          "internalType": "address",
          "name": "seller",
          "type": "address"
        },
        {
          "indexed": false,
          "internalType": "uint256",
          "name": "price",
          "type": "uint256"
        },
        {
          "indexed": false,
          "internalType": "uint256",
          "name": "platformFee",
          "type": "uint256"
        },
        {
          "indexed": false,
          "internalType": "uint256",
          "name": "royaltyAmount",
          "type": "uint256"
        }
      ],
      "name": "Sale",
      "type": "event"
    },
    {
      "inputs": [
        {
          "internalType": "uint256",
          "name": "listingId",
          "type": "uint256"
        }
      ],
      "name": "buyNFT",
      "outputs": [],
      "stateMutability": "payable",
      "type": "function"
    },
    {
      "inputs": [
        {
          "internalType": "uint256",
          "name": "listingId",
          "type": "uint256"
        }
      ],
      "name": "cancelListing",
      "outputs": [],
      "stateMutability": "nonpayable",
      "type": "function"
    },
    {
      "inputs": [],
      "name": "feeRecipient",
      "outputs": [
        {
          "internalType": "address",
          "name": "",
          "type": "address"
        }
      ],
      "stateMutability": "view",
      "type": "function"
    },
    {
      "inputs": [
        {
          "internalType": "uint256",
          "name": "listingId",
          "type": "uint256"
        }
      ],
      "name": "getListing",
      "outputs": [
        {
          "components": [
            {
              "internalType": "address",
              "name": "seller",
              "type": "address"
            },
            {
              "internalType": "address",
              "name": "nftContract",
              "type": "address"
            },
            {
              "internalType": "uint256",
              "name": "tokenId",
              "type": "uint256"
            },
            {
              "internalType": "uint256",
              "name": "price",
              "type": "uint256"
            },
            {
              "internalType": "bool",
              "name": "active",
              "type": "bool"
            }
          ],
          "internalType": "struct NFTMarketplace.Listing",
          "name": "",
          "type": "tuple"
        }
      ],
      "stateMutability": "view",
      "type": "function"
    },
    {
      "inputs": [
        {
          "internalType": "address",
          "name": "nftContract",
          "type": "address"
        },
        {
          "internalType": "uint256",
          "name": "tokenId",
          "type": "uint256"
        },
        {
          "internalType": "uint256",
          "name": "price",
          "type": "uint256"
        }
      ],
      "name": "listNFT",
      "outputs": [
        {
          "internalType": "uint256",
          "name": "listingId",
          "type": "uint256"
        }
      ],
      "stateMutability": "nonpayable",
      "type": "function"
    },
    {
      "inputs": [
        {
          "internalType": "uint256",
          "name": "",
          "type": "uint256"
        }
      ],
      "name": "listings",
      "outputs": [
        {
          "internalType": "address",
          "name": "seller",
          "type": "address"
        },
        {
          "internalType": "address",
          "name": "nftContract",
          "type": "address"
        },
        {
          "internalType": "uint256",
          "name": "tokenId",
          "type": "uint256"
        },
        {
          "internalType": "uint256",
          "name": "price",
          "type": "uint256"
        },
        {
          "internalType": "bool",
          "name": "active",
          "type": "bool"
        }
      ],
      "stateMutability": "view",
      "type": "function"
    },
    {
      "inputs": [],
      "name": "owner",
      "outputs": [
        {
          "internalType": "address",
          "name": "",
          "type": "address"
        }
      ],
      "stateMutability": "view",
      "type": "function"
    },
    {
      "inputs": [],
      "name": "platformFeeBasisPoints",
      "outputs": [
        {
          "internalType": "uint256",
          "name": "",
          "type": "uint256"
        }
      ],
      "stateMutability": "view",
      "type": "function"
    },
    {
      "inputs": [],
      "name": "renounceOwnership",
      "outputs": [],
      "stateMutability": "nonpayable",
      "type": "function"
    },
    {
      "inputs": [],
      "name": "totalListings",
      "outputs": [
        {
          "internalType": "uint256",
          "name": "",
          "type": "uint256"
        }
      ],
      "stateMutability": "view",
      "type": "function"
    },
    {
      "inputs": [
        {
          "internalType": "address",
          "name": "newOwner",
          "type": "address"
        }
      ],
      "name": "transferOwnership",
      "outputs": [],
      "stateMutability": "nonpayable",
      "type": "function"
    },
    {
      "inputs": [
        {
          "internalType": "address",
          "name": "newRecipient",
          "type": "address"
        }
      ],
      "name": "updateFeeRecipient",
      "outputs": [],
      "stateMutability": "nonpayable",
      "type": "function"
    },
    {
      "inputs": [
        {
          "internalType": "uint256",
          "name": "newFeeBasisPoints",
          "type": "uint256"
        }
      ],
      "name": "updatePlatformFee",
      "outputs": [],
      "stateMutability": "nonpayable",
      "type": "function"
    },
    {
      "inputs": [
        {
          "internalType": "uint256",
          "name": "listingId",
          "type": "uint256"
        },
        {
          "internalType": "uint256",
          "name": "newPrice",
          "type": "uint256"
        }
      ],
      "name": "updatePrice",
      "outputs": [],
      "stateMutability": "nonpayable",
      "type": "function"
    }
  ],
  "bytecode": "0x608060405234801561000f575f5ffd5b50604051610ff2380380610ff283398101604081905261002e91610121565b60017f9b779b17422d0df92223018b32b4d1fa46e071723d6817e2486d003becc55f0055338061007757604051631e4fbdf760e01b81525f600482015260240160405180910390fd5b610080816100d2565b506001600160a01b0381166100a85760405163d92e233d60e01b815260040160405180910390fd5b600191909155600280546001600160a01b0319166001600160a01b0390921691909117905561015b565b5f80546001600160a01b038381166001600160a01b0319831681178455604051919092169283917f8be0079c531659141344cd1fd0a4f28419497f9722a3daafe3b4186f6b6457e09190a35050565b5f5f60408385031215610132575f5ffd5b825160208401519092506001600160a01b0381168114610150575f5ffd5b809150509250929050565b610e8a806101685f395ff3fe6080604052600436106100d9575f3560e01c8063aa0b59881161007c578063c78b616c11610057578063c78b616c146102f0578063de74e57b14610304578063f160d36914610391578063f2fde38b146103b0575f5ffd5b8063aa0b59881461028f578063ad05f1b4146102ae578063c58bfb66146102db575f5ffd5b806351ed8288116100b757806351ed82881461022d578063715018a61461024057806382367b2d146102545780638da5cb5b14610273575f5ffd5b8063107a274a146100dd578063305a67a8146101d557806346904840146101f6575b5f5ffd5b3480156100e8575f5ffd5b5061017f6100f7366004610cd4565b6040805160a0810182525f80825260208201819052918101829052606081018290526080810191909152505f90815260036020818152604092839020835160a08101855281546001600160a01b0390811682526001830154169281019290925260028101549382019390935290820154606082015260049091015460ff161515608082015290565b6040516101cc919081516001600160a01b03908116825260208084015190911690820152604080830151908201526060808301519082015260809182015115159181019190915260a00190565b60405180910390f35b3480156101e0575f5ffd5b506101f46101ef366004610cd4565b6103cf565b005b348015610201575f5ffd5b50600254610215906001600160a01b031681565b6040516001600160a01b0390911681526020016101cc565b6101f461023b366004610cd4565b610467565b34801561024b575f5ffd5b506101f4610753565b34801561025f575f5ffd5b506101f461026e366004610ceb565b610766565b34801561027e575f5ffd5b505f546001600160a01b0316610215565b34801561029a575f5ffd5b506101f46102a9366004610cd4565b61082d565b3480156102b9575f5ffd5b506102cd6102c8366004610d1f565b61083a565b6040519081526020016101cc565b3480156102e6575f5ffd5b506102cd60015481565b3480156102fb575f5ffd5b506004546102cd565b34801561030f575f5ffd5b5061035c61031e366004610cd4565b600360208190525f9182526040909120805460018201546002830154938301546004909301546001600160a01b039283169492909116929060ff1685565b604080516001600160a01b0396871681529590941660208601529284019190915260608301521515608082015260a0016101cc565b34801561039c575f5ffd5b506101f46103ab366004610d51565b610ae9565b3480156103bb575f5ffd5b506101f46103ca366004610d51565b610b3a565b5f818152600360205260409020600481015460ff16610401576040516366cb03e960e01b815260040160405180910390fd5b80546001600160a01b0316331461042b57604051635ec8235160e01b815260040160405180910390fd5b60048101805460ff19169055604051339083907f8e25282255ab31897df2b0456bb993ac7f84d376861aefd84901d2d63a7428a2905f90a35050565b61046f610b74565b5f818152600360205260409020600481015460ff166104a1576040516366cb03e960e01b815260040160405180910390fd5b80546001600160a01b031633036104cb576040516350eadcb160e01b815260040160405180910390fd5b806003015434101561050457600381015460405163b99e2ab760e01b815260048101919091523460248201526044015b60405180910390fd5b60048101805460ff1916905560038101548154600180840154600285015491546001600160a01b039384169390911691905f90612710906105459087610d87565b61054f9190610da4565b60405163152a902d60e11b815260048101849052602481018790529091505f9081906001600160a01b03861690632a55205a906044016040805180830381865afa9250505080156105bd575060408051601f3d908101601f191682019092526105ba91810190610dc3565b60015b156105e8576001600160a01b038216158015906105d957505f81115b156105e5578192508093505b50505b5f826105f4858a610def565b6105fe9190610def565b604051632142170760e11b81526001600160a01b03898116600483015233602483015260448201889052919250908716906342842e0e906064015f604051808303815f87803b15801561064f575f5ffd5b505af1158015610661573d5f5f3e3d5ffd5b505050505f84111561068357600254610683906001600160a01b031685610ba2565b5f8311801561069a57506001600160a01b03821615155b156106a9576106a98284610ba2565b6106b38782610ba2565b873411156106ce576106ce336106c98a34610def565b610ba2565b60408051898152602081018690529081018490526001600160a01b0388169033908c907fd54b56881e7d8e485ae13972347facc2cbdf328603b65c7af6c972cf81a539339060600160405180910390a450505050505050505061075060017f9b779b17422d0df92223018b32b4d1fa46e071723d6817e2486d003becc55f0055565b50565b61075b610c17565b6107645f610c43565b565b805f036107865760405163e1abbfc560e01b815260040160405180910390fd5b5f828152600360205260409020600481015460ff166107b8576040516366cb03e960e01b815260040160405180910390fd5b80546001600160a01b031633146107e257604051635ec8235160e01b815260040160405180910390fd5b60038101805490839055604080518281526020810185905285917f15819dd2fd9f6418b142e798d08a18d0bf06ea368f4480b7b0d3f75bd966bc48910160405180910390a250505050565b610835610c17565b600155565b5f815f0361085b5760405163e1abbfc560e01b815260040160405180910390fd5b6040516331a9108f60e11b815260048101849052849033906001600160a01b03831690636352211e90602401602060405180830381865afa1580156108a2573d5f5f3e3d5ffd5b505050506040513d601f19601f820116820180604052508101906108c69190610e02565b6001600160a01b0316146108ed576040516359dc379f60e01b815260040160405180910390fd5b60405163e985e9c560e01b81523360048201523060248201526001600160a01b0382169063e985e9c590604401602060405180830381865afa158015610935573d5f5f3e3d5ffd5b505050506040513d601f19601f820116820180604052508101906109599190610e1d565b1580156109d6575060405163020604bf60e21b81526004810185905230906001600160a01b0383169063081812fc90602401602060405180830381865afa1580156109a6573d5f5f3e3d5ffd5b505050506040513d601f19601f820116820180604052508101906109ca9190610e02565b6001600160a01b031614155b156109f45760405163a9248d2560e01b815260040160405180910390fd5b60048054905f610a0383610e3c565b909155506040805160a081018252338082526001600160a01b0389811660208085018281528587018c8152606087018c81526001608089018181525f8c81526003968790528b902099518a549089166001600160a01b0319918216178b559451918a01805492909816919094161790955551600287015592519085015590516004909301805493151560ff199094169390931790925591519294509184907f723f73331eaee88eec7fc68ef60ab6ed15e4b90d0472b55eb92fa43910bab6dd90610ad99089908990918252602082015260400190565b60405180910390a4509392505050565b610af1610c17565b6001600160a01b038116610b185760405163d92e233d60e01b815260040160405180910390fd5b600280546001600160a01b0319166001600160a01b0392909216919091179055565b610b42610c17565b6001600160a01b038116610b6b57604051631e4fbdf760e01b81525f60048201526024016104fb565b61075081610c43565b610b7c610c92565b60027f9b779b17422d0df92223018b32b4d1fa46e071723d6817e2486d003becc55f0055565b5f826001600160a01b0316826040515f6040518083038185875af1925050503d805f8114610beb576040519150601f19603f3d011682016040523d82523d5f602084013e610bf0565b606091505b5050905080610c12576040516312171d8360e31b815260040160405180910390fd5b505050565b5f546001600160a01b031633146107645760405163118cdaa760e01b81523360048201526024016104fb565b5f80546001600160a01b038381166001600160a01b0319831681178455604051919092169283917f8be0079c531659141344cd1fd0a4f28419497f9722a3daafe3b4186f6b6457e09190a35050565b7f9b779b17422d0df92223018b32b4d1fa46e071723d6817e2486d003becc55f005460020361076457604051633ee5aeb560e01b815260040160405180910390fd5b5f60208284031215610ce4575f5ffd5b5035919050565b5f5f60408385031215610cfc575f5ffd5b50508035926020909101359150565b6001600160a01b0381168114610750575f5ffd5b5f5f5f60608486031215610d31575f5ffd5b8335610d3c81610d0b565b95602085013595506040909401359392505050565b5f60208284031215610d61575f5ffd5b8135610d6c81610d0b565b9392505050565b634e487b7160e01b5f52601160045260245ffd5b8082028115828204841417610d9e57610d9e610d73565b92915050565b5f82610dbe57634e487b7160e01b5f52601260045260245ffd5b500490565b5f5f60408385031215610dd4575f5ffd5b8251610ddf81610d0b565b6020939093015192949293505050565b81810381811115610d9e57610d9e610d73565b5f60208284031215610e12575f5ffd5b8151610d6c81610d0b565b5f60208284031215610e2d575f5ffd5b81518015158114610d6c575f5ffd5b5f60018201610e4d57610e4d610d73565b506001019056fea26469706673582212209ab2106fb81d0a2066462cec29eb921e386761913cd78f243d3e2f5cccbdf77d64736f6c634300081c0033",
  "linkReferences": {},
  "deployedLinkReferences": {}
}