{
  "_format": "hh-sol-artifact-1",
  "contractName": "MarketplaceNFT",
  "sourceName": "contracts/MarketplaceNFT.sol",
  "abi": [
    {
      "inputs": [],
      "stateMutability": "nonpayable",
      "type": "constructor"
    },
    {
      "inputs": [
        {
          "internalType": "address",
          "name": "sender",
          "type": "address"
        },
        {
          "internalType": "uint256",
          "name": "tokenId",
          "type": "uint256"
        },
        {
          "internalType": "address",
          "name": "owner",
          "type": "address"
        }
      ],
      "name": "ERC721IncorrectOwner",
      "type": "error"
    },
    {
      "inputs": [
        {
          "internalType": "address",
          "name": "operator",
          "type": "address"
        },
        {
          "internalType": "uint256",
          "name": "tokenId",
          "type": "uint256"
        }
      ],
      "name": "ERC721InsufficientApproval",
      "type": "error"
    },
    {
      "inputs": [
        {
          "internalType": "address",
          "name": "approver",
          "type": "address"
        }
      ],
      "name": "ERC721InvalidApprover",
      "type": "error"
    },
    {
      "inputs": [
        {
          "internalType": "address",
          "name": "operator",
          "type": "address"
        }
      ],
      "name": "ERC721InvalidOperator",
      "type": "error"
    },
    {
      "inputs": [
        {
          "internalType": "address",
          "name": "owner",
          "type": "address"
        }
      ],
      "name": "ERC721InvalidOwner",
      "type": "error"
    },
    {
      "inputs": [
        {
          "internalType": "address",
          "name": "receiver",
          "type": "address"
        }
      ],
      "name": "ERC721InvalidReceiver",
      "type": "error"
    },
    {
      "inputs": [
        {
          "internalType": "address",
          "name": "sender",
          "type": "address"
        }
      ],
      "name": "ERC721InvalidSender",
      "type": "error"
    },
    {
      "inputs": [
        {
          "internalType": "uint256",
          "name": "tokenId",
          "type": "uint256"
        }
      ],
      "name": "ERC721NonexistentToken",
      "type": "error"
    },
    {
      "inputs": [
        {
          "internalType": "uint96",
          "name": "provided",
          "type": "uint96"
        }
      ],
      "name": "InvalidRoyaltyBasisPoints",
      "type": "error"
    },
    {
      "inputs": [
        {
          "internalType": "address",
          "name": "owner",
          "type": "address"
        }
      ],
      "name": "OwnableInvalidOwner",
      "type": "error"
    },
    {
      "inputs": [
        {
          "internalType": "address",
          "name": "account",
          "type": "address"
        }
      ],
      "name": "OwnableUnauthorizedAccount",
      "type": "error"
    },
    {
      "inputs": [],
      "name": "ZeroAddress",
      "type": "error"
    },
    {
      "anonymous": false,
      "inputs": [
        {
          "indexed": true,
          "internalType": "address",
          "name": "owner",
          "type": "address"
        },
        {
          "indexed": true,
          "internalType": "address",
          "name": "approved",
          "type": "address"
        },
        {
          "indexed": true,
          "internalType": "uint256",
          "name": "tokenId",
          "type": "uint256"
        }
      ],
      "name": "Approval",
      "type": "event"
    },
    {
      "anonymous": false,
      "inputs": [
        {
          "indexed": true,
          "internalType": "address",
          "name": "owner",
          "type": "address"
        },
        {
          "indexed": true,
          "internalType": "address",
          "name": "operator",
          "type": "address"
        },
        {
          "indexed": false,
          "internalType": "bool",
          "name": "approved",
          "type": "bool"
        }
      ],
      "name": "ApprovalForAll",
      "type": "event"
    },
    {
      "anonymous": false,
      "inputs": [
        {
          "indexed": false,
          "internalType": "uint256",
          "name": "_fromTokenId",
          "type": "uint256"
        },
        {
          "indexed": false,
          "internalType": "uint256",
          "name": "_toTokenId",
          "type": "uint256"
        }
      ],
      "name": "BatchMetadataUpdate",
      "type": "event"
    },
    {
      "anonymous": false,
      "inputs": [
        {
          "indexed": false,
          "internalType": "uint256",
          "name": "_tokenId",
          "type": "uint256"
        }
      ],
      "name": "MetadataUpdate",
      "type": "event"
    },
    {
      "anonymous": false,
      "inputs": [
        {
          "indexed": true,
          "internalType": "uint256",
          "name": "tokenId",
          "type": "uint256"
        },
        {
          "indexed": true,
          "internalType": "address",
          "name": "creator",
          "type": "address"
        },
        {
          "indexed": false,
          "internalType": "string",
          "name": "tokenURI",
          "type": "string"
        },
        {
          "indexed": false,
          "internalType": "uint96",
          "name": "royaltyBasisPoints",
          "type": "uint96"
        }
      ],
      "name": "NFTMinted",
      "type": "event"
    },
    {
      "anonymous": false,
      "inputs": [
        {
          "indexed": true,
          "internalType": "address",
          "name": "previousOwner",
          "type": "address"
        },
        {
          "indexed": true,
          "internalType": "address",
          "name": "newOwner",
          "type": "address"
        }
      ],
      "name": "OwnershipTransferred",
      "type": "event"
    },
    {
      "anonymous": false,
      "inputs": [
        {
          "indexed": true,
          "internalType": "address",
          "name": "from",
          "type": "address"
        },
        {
          "indexed": true,
          "internalType": "address",
          "name": "to",
          "type": "address"
        },
        {
          "indexed": true,
          "internalType": "uint256",
          "name": "tokenId",
          "type": "uint256"
        }
      ],
      "name": "Transfer",
      "type": "event"
    },
    {
      "inputs": [
        {
          "internalType": "address",
          "name": "to",
          "type": "address"
        },
        {
          "internalType": "uint256",
          "name": "tokenId",
          "type": "uint256"
        }
      ],
      "name": "approve",
      "outputs": [],
      "stateMutability": "nonpayable",
      "type": "function"
    },
    {
      "inputs": [
        {
          "internalType": "address",
          "name": "owner",
          "type": "address"
        }
      ],
      "name": "balanceOf",
      "outputs": [
        {
          "internalType": "uint256",
          "name": "",
          "type": "uint256"
        }
      ],
      "stateMutability": "view",
      "type": "function"
    },
    {
      "inputs": [
        {
          "internalType": "uint256",
          "name": "tokenId",
          "type": "uint256"
        }
      ],
      "name": "getApproved",
      "outputs": [
        {
          "internalType": "address",
          "name": "",
          "type": "address"
        }
      ],
      "stateMutability": "view",
      "type": "function"
    },
    {
      "inputs": [
        {
          "internalType": "uint256",
          "name": "tokenId",
          "type": "uint256"
        }
      ],
      "name": "getRoyaltyInfo",
      "outputs": [
        {
          "internalType": "address",
          "name": "receiver",
          "type": "address"
        },
        {
          "internalType": "uint96",
          "name": "basisPoints",
          "type": "uint96"
        }
      ],
      "stateMutability": "view",
      "type": "function"
    },
    {
      "inputs": [
        {
          "internalType": "address",
          "name": "owner",
          "type": "address"
        },
        {
          "internalType": "address",
          "name": "operator",
          "type": "address"
        }
      ],
      "name": "isApprovedForAll",
      "outputs": [
        {
          "internalType": "bool",
          "name": "",
          "type": "bool"
        }
      ],
      "stateMutability": "view",
      "type": "function"
    },
    {
      "inputs": [
        {
          "internalType": "address",
          "name": "to",
          "type": "address"
        },
        {
          "internalType": "string",
          "name": "uri",
          "type": "string"
        },
        {
          "internalType": "uint96",
          "name": "royaltyBasisPoints",
          "type": "uint96"
        }
      ],
      "name": "mint",
      "outputs": [
        {
          "internalType": "uint256",
          "name": "",
          "type": "uint256"
        }
      ],
      "stateMutability": "nonpayable",
      "type": "function"
    },
    {
      "inputs": [],
      "name": "name",
      "outputs": [
        {
          "internalType": "string",
          "name": "",
          "type": "string"
        }
      ],
      "stateMutability": "view",
      "type": "function"
    },
    {
      "inputs": [],
      "name": "owner",
      "outputs": [
        {
          "internalType": "address",
          "name": "",
          "type": "address"
        }
      ],
      "stateMutability": "view",
      "type": "function"
    },
    {
      "inputs": [
        {
          "internalType": "uint256",
          "name": "tokenId",
          "type": "uint256"
        }
      ],
      "name": "ownerOf",
      "outputs": [
        {
          "internalType": "address",
          "name": "",
          "type": "address"
        }
      ],
      "stateMutability": "view",
      "type": "function"
    },
    {
      "inputs": [],
      "name": "renounceOwnership",
      "outputs": [],
      "stateMutability": "nonpayable",
      "type": "function"
    },
    {
      "inputs": [
        {
          "internalType": "uint256",
          "name": "tokenId",
          "type": "uint256"
        },
        {
          "internalType": "uint256",
          "name": "salePrice",
          "type": "uint256"
        }
      ],
      "name": "royaltyInfo",
      "outputs": [
        {
          "internalType": "address",
          "name": "receiver",
          "type": "address"
        },
        {
          "internalType": "uint256",
          "name": "royaltyAmount",
          "type": "uint256"
        }
      ],
      "stateMutability": "view",
      "type": "function"
    },
    {
      "inputs": [
        {
          "internalType": "address",
          "name": "from",
          "type": "address"
        },
        {
          "internalType": "address",
          "name": "to",
          "type": "address"
        },
        {
          "internalType": "uint256",
          "name": "tokenId",
          "type": "uint256"
        }
      ],
      "name": "safeTransferFrom",
      "outputs": [],
      "stateMutability": "nonpayable",
      "type": "function"
    },
    {
      "inputs": [
        {
          "internalType": "address",
          "name": "from",
          "type": "address"
        },
        {
          "internalType": "address",
          "name": "to",
          "type": "address"
        },
        {
          "internalType": "uint256",
          "name": "tokenId",
          "type": "uint256"
        },
        {
          "internalType": "bytes",
          "name": "data",
          "type": "bytes"
        }
      ],
      "name": "safeTransferFrom",
      "outputs": [],
      "stateMutability": "nonpayable",
      "type": "function"
    },
    {
      "inputs": [
        {
          "internalType": "address",
          "name": "operator",
          "type": "address"
        },
        {
          "internalType": "bool",
          "name": "approved",
          "type": "bool"
        }
      ],
      "name": "setApprovalForAll",
      "outputs": [],
      "stateMutability": "nonpayable",
      "type": "function"
    },
    {
      "inputs": [
        {
          "internalType": "bytes4",
          "name": "interfaceId",
          "type": "bytes4"
        }
      ],
      "name": "supportsInterface",
      "outputs": [
        {
          "internalType": "bool",
          "name": "",
          "type": "bool"
        }
      ],
      "stateMutability": "view",
      "type": "function"
    },
    {
      "inputs": [],
      "name": "symbol",
      "outputs": [
        {
          "internalType": "string",
          "name": "",
          "type": "string"
        }
      ],
      "stateMutability": "view",
      "type": "function"
    },
    {
      "inputs": [
        {
          "internalType": "uint256",
          "name": "tokenId",
          "type": "uint256"
        }
      ],
      "name": "tokenURI",
      "outputs": [
        {
          "internalType": "string",
          "name": "",
          "type": "string"
        }
      ],
      "stateMutability": "view",
      "type": "function"
    },
    {
      "inputs": [],
      "name": "totalMinted",
      "outputs": [
        {
          "internalType": "uint256",
          "name": "",
          "type": "uint256"
        }
      ],
      "stateMutability": "view",
      "type": "function"
    },
    {
      "inputs": [
        {
          "internalType": "address",
          "name": "from",
          "type": "address"
        },
        {
          "internalType": "address",
          "name": "to",
          "type": "address"
        },
        {
          "internalType": "uint256",
          "name": "tokenId",
          "type": "uint256"
        }
      ],
      "name": "transferFrom",
      "outputs": [],
      "stateMutability": "nonpayable",
      "type": "function"
    },
    {
      "inputs": [
        {
          "internalType": "address",
          "name": "newOwner",
          "type": "address"
        }
      ],
      "name": "transferOwnership",
      "outputs": [],
      "stateMutability": "nonpayable",
      "type": "function"
    }
  ],
  "bytecode": "0x608060405234801561000f575f5ffd5b50336040518060400160405280600e81526020016d13585c9ad95d1c1b1858d953919560921b815250604051806040016040528060048152602001631353919560e21b815250815f90816100639190610198565b5060016100708282610198565b5050506001600160a01b0381166100a057604051631e4fbdf760e01b81525f600482015260240160405180910390fd5b6100a9816100af565b50610252565b600780546001600160a01b038381166001600160a01b0319831681179093556040519116919082907f8be0079c531659141344cd1fd0a4f28419497f9722a3daafe3b4186f6b6457e0905f90a35050565b634e487b7160e01b5f52604160045260245ffd5b600181811c9082168061012857607f821691505b60208210810361014657634e487b7160e01b5f52602260045260245ffd5b50919050565b601f82111561019357805f5260205f20601f840160051c810160208510156101715750805b601f840160051c820191505b81811015610190575f815560010161017d565b50505b505050565b81516001600160401b038111156101b1576101b1610100565b6101c5816101bf8454610114565b8461014c565b6020601f8211600181146101f7575f83156101e05750848201515b5f19600385901b1c1916600184901b178455610190565b5f84815260208120601f198516915b828110156102265787850151825560209485019460019092019101610206565b508482101561024357868401515f19600387901b60f8161c191681555b50505050600190811b01905550565b6117198061025f5f395ff3fe608060405234801561000f575f5ffd5b5060043610610127575f3560e01c80637b17b7a8116100a9578063b76c632b1161006e578063b76c632b14610283578063b88d4fde146102fa578063c87b56dd1461030d578063e985e9c514610320578063f2fde38b14610333575f5ffd5b80637b17b7a81461023c5780638da5cb5b1461024f57806395d89b4114610260578063a22cb46514610268578063a2309ff81461027b575f5ffd5b80632a55205a116100ef5780632a55205a146101bb57806342842e0e146101ed5780636352211e1461020057806370a0823114610213578063715018a614610234575f5ffd5b806301ffc9a71461012b57806306fdde0314610153578063081812fc14610168578063095ea7b31461019357806323b872dd146101a8575b5f5ffd5b61013e610139366004611169565b610346565b60405190151581526020015b60405180910390f35b61015b610370565b60405161014a91906111b2565b61017b6101763660046111c4565b6103ff565b6040516001600160a01b03909116815260200161014a565b6101a66101a13660046111f6565b610426565b005b6101a66101b636600461121e565b610435565b6101ce6101c9366004611258565b6104c3565b604080516001600160a01b03909316835260208301919091520161014a565b6101a66101fb36600461121e565b610524565b61017b61020e3660046111c4565b610543565b610226610221366004611278565b61054d565b60405190815260200161014a565b6101a6610592565b61022661024a366004611291565b6105a5565b6007546001600160a01b031661017b565b61015b6106f5565b6101a661027636600461132d565b610704565b600854610226565b6102d36102913660046111c4565b5f908152600960209081526040918290208251808401909352546001600160a01b038116808452600160a01b9091046001600160601b03169290910182905291565b604080516001600160a01b0390931683526001600160601b0390911660208301520161014a565b6101a661030836600461137a565b61070f565b61015b61031b3660046111c4565b610727565b61013e61032e366004611457565b610732565b6101a6610341366004611278565b61075f565b5f6001600160e01b0319821663152a902d60e11b148061036a575061036a8261079c565b92915050565b60605f805461037e90611488565b80601f01602080910402602001604051908101604052809291908181526020018280546103aa90611488565b80156103f55780601f106103cc576101008083540402835291602001916103f5565b820191905f5260205f20905b8154815290600101906020018083116103d857829003601f168201915b5050505050905090565b5f610409826107c0565b505f828152600460205260409020546001600160a01b031661036a565b6104318282336107f8565b5050565b6001600160a01b03821661046357604051633250574960e11b81525f60048201526024015b60405180910390fd5b5f61046f838333610805565b9050836001600160a01b0316816001600160a01b0316146104bd576040516364283d7b60e01b81526001600160a01b038086166004830152602482018490528216604482015260640161045a565b50505050565b5f8281526009602090815260408083208151808301909252546001600160a01b038116808352600160a01b9091046001600160601b031692820183905292916127109061051090866114d4565b61051a91906114eb565b9150509250929050565b61053e83838360405180602001604052805f81525061070f565b505050565b5f61036a826107c0565b5f6001600160a01b038216610577576040516322718ad960e21b81525f600482015260240161045a565b506001600160a01b03165f9081526003602052604090205490565b61059a6108f7565b6105a35f610924565b565b5f6001600160a01b0385166105cd5760405163d92e233d60e01b815260040160405180910390fd5b612710826001600160601b031611156106045760405163105cb3a160e31b81526001600160601b038316600482015260240161045a565b600880545f91826106148361150a565b9190505590506106248682610975565b6106638186868080601f0160208091040260200160405190810160405280939291908181526020018383808284375f9201919091525061098e92505050565b6040805180820182526001600160a01b038089168083526001600160601b0380881660208086019182525f888152600990915286902094519051909116600160a01b02921691909117909155905182907fd305ddd0a4ca3207522e270c1d2564b12fd6177ef0681e30466c521a9ef974cf906106e490899089908990611522565b60405180910390a395945050505050565b60606001805461037e90611488565b6104313383836109dd565b61071a848484610435565b6104bd3385858585610aa4565b606061036a82610bcc565b6001600160a01b039182165f90815260056020908152604080832093909416825291909152205460ff1690565b6107676108f7565b6001600160a01b03811661079057604051631e4fbdf760e01b81525f600482015260240161045a565b61079981610924565b50565b5f6001600160e01b03198216632483248360e11b148061036a575061036a82610c4d565b5f818152600260205260408120546001600160a01b03168061036a57604051637e27328960e01b81526004810184905260240161045a565b61053e8383836001610c9c565b5f828152600260205260408120546001600160a01b039081169083161561083157610831818486610da0565b6001600160a01b0381161561086b5761084c5f855f5f610c9c565b6001600160a01b0381165f90815260036020526040902080545f190190555b6001600160a01b03851615610899576001600160a01b0385165f908152600360205260409020805460010190555b5f8481526002602052604080822080546001600160a01b0319166001600160a01b0389811691821790925591518793918516917fddf252ad1be2c89b69c2b068fc378daa952ba7f163c4a11628f55a4df523b3ef91a4949350505050565b6007546001600160a01b031633146105a35760405163118cdaa760e01b815233600482015260240161045a565b600780546001600160a01b038381166001600160a01b0319831681179093556040519116919082907f8be0079c531659141344cd1fd0a4f28419497f9722a3daafe3b4186f6b6457e0905f90a35050565b610431828260405180602001604052805f815250610e04565b5f8281526006602052604090206109a582826115a6565b506040518281527ff8e1a15aba9398e019f0b49df1a4fde98ee17ae345cb5f6b5e2c27f5033e8ce79060200160405180910390a15050565b6001600160a01b038316610a065760405163a9fbf51f60e01b81525f600482015260240161045a565b6001600160a01b038216610a3857604051630b61174360e31b81526001600160a01b038316600482015260240161045a565b6001600160a01b038381165f81815260056020908152604080832094871680845294825291829020805460ff191686151590811790915591519182527f17307eab39ab6107e8899845ad3d59bd9653f200f220920489ca2b5937696c31910160405180910390a3505050565b6001600160a01b0383163b15610bc557604051630a85bd0160e11b81526001600160a01b0384169063150b7a0290610ae6908890889087908790600401611661565b6020604051808303815f875af1925050508015610b20575060408051601f3d908101601f19168201909252610b1d9181019061169d565b60015b610b87573d808015610b4d576040519150601f19603f3d011682016040523d82523d5f602084013e610b52565b606091505b5080515f03610b7f57604051633250574960e11b81526001600160a01b038516600482015260240161045a565b805160208201fd5b6001600160e01b03198116630a85bd0160e11b14610bc357604051633250574960e11b81526001600160a01b038516600482015260240161045a565b505b5050505050565b6060610bd7826107c0565b505f610bed60408051602081019091525f815290565b90505f610bf984610e1b565b905081515f03610c0a579392505050565b805115610c3c578181604051602001610c249291906116cf565b60405160208183030381529060405292505050919050565b610c4584610eba565b949350505050565b5f6001600160e01b031982166380ac58cd60e01b1480610c7d57506001600160e01b03198216635b5e139f60e01b145b8061036a57506301ffc9a760e01b6001600160e01b031983161461036a565b8080610cb057506001600160a01b03821615155b15610d71575f610cbf846107c0565b90506001600160a01b03831615801590610ceb5750826001600160a01b0316816001600160a01b031614155b8015610cfe5750610cfc8184610732565b155b15610d275760405163a9fbf51f60e01b81526001600160a01b038416600482015260240161045a565b8115610d6f5783856001600160a01b0316826001600160a01b03167f8c5be1e5ebec7d5bd14f71427d1e84f3dd0314c0f7b2291e5b200ac8c7c3b92560405160405180910390a45b505b50505f90815260046020526040902080546001600160a01b0319166001600160a01b0392909216919091179055565b610dab838383610f2b565b61053e576001600160a01b038316610dd957604051637e27328960e01b81526004810182905260240161045a565b60405163177e802f60e01b81526001600160a01b03831660048201526024810182905260440161045a565b610e0e8383610f8c565b61053e335f858585610aa4565b5f818152600660205260409020805460609190610e3790611488565b80601f0160208091040260200160405190810160405280929190818152602001828054610e6390611488565b8015610eae5780601f10610e8557610100808354040283529160200191610eae565b820191905f5260205f20905b815481529060010190602001808311610e9157829003601f168201915b50505050509050919050565b6060610ec5826107c0565b505f610edb60408051602081019091525f815290565b90505f815111610ef95760405180602001604052805f815250610f24565b80610f0384610fed565b604051602001610f149291906116cf565b6040516020818303038152906040525b9392505050565b5f6001600160a01b03831615801590610c455750826001600160a01b0316846001600160a01b03161480610f645750610f648484610732565b80610c455750505f908152600460205260409020546001600160a01b03908116911614919050565b6001600160a01b038216610fb557604051633250574960e11b81525f600482015260240161045a565b5f610fc183835f610805565b90506001600160a01b0381161561053e576040516339e3563760e11b81525f600482015260240161045a565b60605f610ff98361107d565b60010190505f8167ffffffffffffffff81111561101857611018611366565b6040519080825280601f01601f191660200182016040528015611042576020820181803683370190505b5090508181016020015b5f19016f181899199a1a9b1b9c1cb0b131b232b360811b600a86061a8153600a850494508461104c57509392505050565b5f8072184f03e93ff9f4daa797ed6e38ed64bf6a1f0160401b83106110bb5772184f03e93ff9f4daa797ed6e38ed64bf6a1f0160401b830492506040015b6d04ee2d6d415b85acef810000000083106110e7576d04ee2d6d415b85acef8100000000830492506020015b662386f26fc10000831061110557662386f26fc10000830492506010015b6305f5e100831061111d576305f5e100830492506008015b612710831061113157612710830492506004015b60648310611143576064830492506002015b600a831061036a5760010192915050565b6001600160e01b031981168114610799575f5ffd5b5f60208284031215611179575f5ffd5b8135610f2481611154565b5f81518084528060208401602086015e5f602082860101526020601f19601f83011685010191505092915050565b602081525f610f246020830184611184565b5f602082840312156111d4575f5ffd5b5035919050565b80356001600160a01b03811681146111f1575f5ffd5b919050565b5f5f60408385031215611207575f5ffd5b611210836111db565b946020939093013593505050565b5f5f5f60608486031215611230575f5ffd5b611239846111db565b9250611247602085016111db565b929592945050506040919091013590565b5f5f60408385031215611269575f5ffd5b50508035926020909101359150565b5f60208284031215611288575f5ffd5b610f24826111db565b5f5f5f5f606085870312156112a4575f5ffd5b6112ad856111db565b9350602085013567ffffffffffffffff8111156112c8575f5ffd5b8501601f810187136112d8575f5ffd5b803567ffffffffffffffff8111156112ee575f5ffd5b8760208284010111156112ff575f5ffd5b6020919091019350915060408501356001600160601b0381168114611322575f5ffd5b939692955090935050565b5f5f6040838503121561133e575f5ffd5b611347836111db565b91506020830135801515811461135b575f5ffd5b809150509250929050565b634e487b7160e01b5f52604160045260245ffd5b5f5f5f5f6080858703121561138d575f5ffd5b611396856111db565b93506113a4602086016111db565b925060408501359150606085013567ffffffffffffffff8111156113c6575f5ffd5b8501601f810187136113d6575f5ffd5b803567ffffffffffffffff8111156113f0576113f0611366565b604051601f8201601f19908116603f0116810167ffffffffffffffff8111828210171561141f5761141f611366565b604052818152828201602001891015611436575f5ffd5b816020840160208301375f6020838301015280935050505092959194509250565b5f5f60408385031215611468575f5ffd5b611471836111db565b915061147f602084016111db565b90509250929050565b600181811c9082168061149c57607f821691505b6020821081036114ba57634e487b7160e01b5f52602260045260245ffd5b50919050565b634e487b7160e01b5f52601160045260245ffd5b808202811582820484141761036a5761036a6114c0565b5f8261150557634e487b7160e01b5f52601260045260245ffd5b500490565b5f6001820161151b5761151b6114c0565b5060010190565b60408152826040820152828460608301375f606084830101525f6060601f19601f86011683010190506001600160601b0383166020830152949350505050565b601f82111561053e57805f5260205f20601f840160051c810160208510156115875750805b601f840160051c820191505b81811015610bc5575f8155600101611593565b815167ffffffffffffffff8111156115c0576115c0611366565b6115d4816115ce8454611488565b84611562565b6020601f821160018114611606575f83156115ef5750848201515b5f19600385901b1c1916600184901b178455610bc5565b5f84815260208120601f198516915b828110156116355787850151825560209485019460019092019101611615565b508482101561165257868401515f19600387901b60f8161c191681555b50505050600190811b01905550565b6001600160a01b03858116825284166020820152604081018390526080606082018190525f9061169390830184611184565b9695505050505050565b5f602082840312156116ad575f5ffd5b8151610f2481611154565b5f81518060208401855e5f93019283525090919050565b5f610c456116dd83866116b8565b846116b856fea2646970667358221220591cbc1e39de914b0ae6b7a1bdea8e6936f481cd68ca92fd9f7ffce47f92c17664736f6c634300081c0033",
  "linkReferences": {},
  "deployedLinkReferences": {}
}